:1000000000800020C9360000293700002937000091
:1000100000000000000000000000000000000000E0
:100020000000000000000000000000002937000070
:100030000000000000000000293700002937000000
:100040002937000029370000293700002937000030
:100050002937000029370000293700002937000020
:100060002937000029370000293700002937000010
:1000700029370000293700002937000029390000FE
:100080009936000029370000293700002937000081
:080090002937000029370000A8
:100098000023C25C0133002AFBD1581E70470000C0
:1000A80002B4714649084900095C49008E4402BC03
:1000B8007047C04603B47146490840004900095ECC
:1000C80049008E4403BC7047002243088B4274D316
:1000D80003098B425FD3030A8B4244D3030B8B4241
:1000E80028D3030C8B420DD3FF22090212BA030C4A
:1000F8008B4202D31212090265D0030B8B4219D32B
:1001080000E0090AC30B8B4201D3CB03C01A52414A
:10011800830B8B4201D38B03C01A5241430B8B4292
:1001280001D34B03C01A5241030B8B4201D30B037B
:10013800C01A5241C30A8B4201D3CB02C01A5241A2
:10014800830A8B4201D38B02C01A5241430A8B4265
:1001580001D34B02C01A5241030A8B4201D30B024E
:10016800C01A5241CDD2C3098B4201D3CB01C01A68
:10017800524183098B4201D38B01C01A5241430972
:100188008B4201D34B01C01A524103098B4201D360
:100198000B01C01A5241C3088B4201D3CB00C01ACD
:1001A800524183088B4201D38B00C01A5241430845
:1001B8008B4201D34B00C01A5241411A00D201466A
:1001C800524110467047FFE701B5002000F0F0F8F3
:1001D80002BDC0460029F7D076E7704703460B43B7
:1001E8007FD4002243088B4274D303098B425FD328
:1001F800030A8B4244D3030B8B4228D3030C8B4254
:100208000DD3FF22090212BA030C8B4202D3121239
:10021800090265D0030B8B4219D300E0090AC30B0E
:100228008B4201D3CB03C01A5241830B8B4201D3BB
:100238008B03C01A5241430B8B4201D34B03C01AA4
:100248005241030B8B4201D30B03C01A5241C30A1C
:100258008B4201D3CB02C01A5241830A8B4201D38D
:100268008B02C01A5241430A8B4201D34B02C01A77
:100278005241030A8B4201D30B02C01A5241CDD21C
:10028800C3098B4201D3CB01C01A524183098B4267
:1002980001D38B01C01A524143098B4201D34B0150
:1002A800C01A524103098B4201D30B01C01A5241B3
:1002B800C3088B4201D3CB00C01A524183088B423A
:1002C80001D38B00C01A524143088B4201D34B0023
:1002D800C01A5241411A00D2014652411046704795
:1002E8005DE0CA0F00D04942031000D3404253409A
:1002F80000229C4603098B422DD3030A8B4212D35A
:10030800FC22890112BA030A8B420CD3890192118B
:100318008B4208D3890192118B4204D389013AD0C8
:10032800921100E08909C3098B4201D3CB01C01A9D
:10033800524183098B4201D38B01C01A52414309B0
:100348008B4201D34B01C01A524103098B4201D39E
:100358000B01C01A5241C3088B4201D3CB00C01A0B
:10036800524183088B4201D38B00C01A5241D9D223
:1003780043088B4201D34B00C01A5241411A00D2A4
:100388000146634652415B10104601D34042002BA0
:1003980000D54942704763465B1000D3404201B51F
:1003A800002000F005F802BD0029F8D016E77047D4
:1003B8007047C0468446100062468C461900634662
:1003C80000E0C0461FB504F0ADFC002801D40021B0
:1003D800C8421FBD10B504F0EFFB4042013010BD0C
:1003E80010B504F09FFC002801DB002010BD01209F
:1003F80010BDC04610B504F095FC002801DD0020B2
:1004080010BD012010BDC04610B504F01BFC00282B
:1004180001DC002010BD012010BDC04610B504F05D
:1004280011FC002801DA002010BD012010BDC046D3
:100438001C2101231B04984201D3000C10391B0A0C
:10044800984201D3000A08391B09984201D30009D0
:10045800043902A2105C40187047C0460403020227
:100468000101010100000000000000000448054BE4
:1004780010B5834203D0044B002B00D0984710BD21
:10048800D4010020D40100200000000006480749DC
:10049800091A8B10C90FC91810B5491003D0044B9D
:1004A800002B00D0984710BDD4010020D4010020B3
:1004B8000000000010B5074C2378002B09D1FFF786
:1004C800D5FF054B002B02D0044800E000BF0123F4
:1004D800237010BDD4010020000000008C600000D3
:1004E800054B10B5002B03D00449054800E000BFB8
:1004F800FFF7CCFF10BDC04600000000D801002067
:100508008C600000F0B51F00002316008BB09F42DE
:1005180004DA802109067B181F002D23129A149DE6
:100528001370202303229D43462D07D02B00453B03
:1005380059424B411099013ACB18109309AB0493D7
:1005480008AB0393139B00920293109B3200019314
:100558003B0000F027FE0400472D1BD1119BDB0751
:1005680011D5109BC31807930022002330003900CF
:10057800FFF730FF002801D0079B09933022099B21
:1005880007998B4220D32000099B159A1B1B1360E7
:100598000BB0F0BD109BC3180793462DE4D1037828
:1005A800302B0CD10022002330003900FFF712FF56
:1005B800002804D10123109A9B1A139A1360139BE5
:1005C800079A1B68D318CEE7591C09911A70D6E709
:1005D800F0B52B2385B005000C1E027001DA4C42E1
:1005E80002336B70092C2EDD02ABDE1D20000A21C0
:1005F800FFF7DAFE37003031013E200031700A2162
:100608000194FFF7EBFD019B0400632BEEDCBA1E9F
:1006180030341470AC1C1300210002A80730984233
:100628000CD802AB07330020934203D3093002AB46
:10063800C018C01B0019401B05B0F0BD1878013365
:1006480008700131E9E73023E418AB70281DEC701D
:10065800F1E70000F0B597B00C001C9D0A920B93CF
:10066800099000F0B9FC036818000F93FFF710FD1C
:100678000023072210901493237E0E93236811936E
:100688002B68073393430122C0CB2B607B005B08A8
:100698000D930C96A664E7640C980D99A44B5242EE
:1006A80005F0AEFA002831D10C980D990122A04B23
:1006B8005242FFF79FFE002828D100220023300075
:1006C8003900FFF78DFE002803D023002D22433385
:1006D8001A70984B0C930E9B472B01D8964B0C9392
:1006E80003230025119A236101339A4322600B9B4F
:1006F8002100009309980A9B15AA00F0D9F9013046
:1007080000D099E00120404217B0F0BD32003B0014
:100718003000390005F074FA00280CD0002F03DAF5
:1007280023002D2243331A70844B0C930E9B472BC6
:10073800D6D8834BD3E720220E9D636895435A1C75
:1007480044D1073363608023119ADB0013430022EE
:100758002360069214AA05920E9A0AA9049213AA73
:100768000392232252180292019363683200009385
:1007780009983B00FFF7C6FE13990C90472D2BD123
:10078800CB1C02DB63688B4244DA0E9E023EF3B256
:100798000E9320000E9A013950301391FFF718FF7D
:1007A800149A050013182361012A02DC2268D20773
:1007B80001D50133236123230AAA9B181B78002B38
:1007C80095D023002D2243331A7090E7472DBAD1D4
:1007D800002BB8D10133B5E70E9B652BD9D90E9BF9
:1007E800662B19D16368002909DD2161002B02D12C
:1007F8002268D2070BD501335B18236107E0002B71
:1008080003D101222068104200D09A1C22610025E1
:10081800A165D0E767230E93149B8B4205DC236800
:100828002161DB07F3D54B1CE7E70122002901DC36
:100838009218521A9B18E0E72268530508D42369D6
:100848000C9A0A9909980B9DA847013029D159E7B4
:100858000E9B652B00D8D6E0A06CE16C002200232B
:10086800FFF7B8FD002833D00123364A0A990998C2
:100878000B9DA847013000D144E7149E139BB34257
:1008880002DB2368DB070CD50B9D109B0F9A0A9996
:100898000998A8470025013000D133E7731EAB4201
:1008A8000ADC23689B0700D500E1159BE0689842A5
:1008B80000DB29E7180027E7220001230A99099895
:1008C8000B9F1A32B847013000D11BE70135E5E725
:1008D800139B002B38DC01231A4A0A9909980B9DAF
:1008E800A847013000D10DE7149E139B334302D172
:1008F8002368DB07D5D50B9D109B0F9A0A99099899
:10090800A8470025013000D1FCE6139B5B42AB42AF
:1009180001DC330094E7220001230A9909980B9F10
:100928001A32B847013000D1ECE60135EDE7C04690
:10093800FFFFEF7FB8600000B4600000C0600000F7
:10094800BC600000C4600000149EA76DB74200DDC3
:100958003700002F2FDCFB430025DB173B400E93AD
:10096800A76D0E9BFB1AAB422EDC139B9E4237DC15
:100978002368DB0734D4139DF31B751B9D4200DDF0
:100988001D00002D35DCEB430027DB171D400C95BF
:10099800139B0C9AF31A9B1ABB4200DC81E72200D6
:1009A80001230A9909980B9D1A32A847013000D1F2
:1009B800A8E60137ECE73B000C9A0A9909980B9DC9
:1009C800A8470130C7D19DE6220001230A9909985A
:1009D8000B9F1A32B847013000D193E60135BFE7C3
:1009E800109B0F9A0A9909980B9DA8470130C2D10C
:1009F80088E60C9B0A99DA1909982B000B9FB847CF
:100A08000130C0D17EE6149E012E02DC01231A4279
:100A180039D001230C9A0A9909980B9FB8470130DD
:100A280000D16FE6109B0F9A0A9909980B9FB84757
:100A3800013000D166E6A06CE16C731E0E930022B3
:100A48000023FFF7C7FC00281BD10C9A0E9B01322C
:100A58000A9909980B9EB04701300ED152E6220040
:100A680001230A9909980B9E1A32B047013000D128
:100A780048E601370E9B9F42F1DB22002B005032E3
:100A8800DFE60027F6E70C9AE2E7220001230A993D
:100A980009980B9E1932B047013000D132E6013572
:100AA800E368159A9B1AAB42EFDCFEE60025F7E7F0
:100AB800F7B5160001938A680B690C000090934201
:100AC80000DA13002200336043321278002A01D082
:100AD8000133336023689B0602D5336802333360E1
:100AE8002268062315001D401A4227D023004333ED
:100AF8001B785A1E93412268920630D4220001992D
:100B08000098089D4332A847013025D00622236863
:100B180000251340042B05D13368E568ED1AEB4333
:100B2800DB171D40A3682269934201DD9B1AED186B
:100B38000026B54220D1002010E00135E368326874
:100B48009B1AAB42D2DD2200012301990098089F2D
:100B58001932B8470130F0D101204042FEBD3020A3
:100B6800E1184331087021005A1C45310978A21850
:100B7800433202331170C1E7220001230199009822
:100B8800089F1A32B8470130E6D00136D1E7000095
:100B9800F0B58BB006920A00433207930590039292
:100BA8000A7E0C00109B782A09D8622A0BD8002AE2
:100BB80000D1BAE07A490491582A00D18EE0250084
:100BC80042352A7022E0100063381528F7D8FFF75D
:100BD80071FA16001F00F6FFF6FFF6FFF6FF1F007A
:100BE800F6FFF6FFF6FFF6FF9F0036007E00F6FFE1
:100BF800F6FFB000F6FF3600F6FFF6FF820025008C
:100C08001A684235111D196013682B7001239EE084
:100C180018680968021D0D060BD506681A60002EB3
:100C280003DA2D23039A764213705D4B0A27049347
:100C380018E006681A604906F1D536B2EFE7086889
:100C4800196840C9050602D4400600D5B6B2196035
:100C5800534B0A2704936F2A00D1023F2300002236
:100C680043331A706368A360002B06DB04212268F3
:100C7800039D8A43226033430CD0039D3000390022
:100C8800FFF7A8FA049B013D5B5C2B70330006005C
:100C98009F42F3D9082F09D12368DB0706D562687C
:100CA80023699A4202DC3023013D2B70039B5B1BB6
:100CB8002361079B210000930598069B09AAFFF76B
:100CC800F7FE013048D1012040420BB0F0BD202290
:100CD80009680A432260782232490491210045318B
:100CE8000A701968226840C9100602D4500600D557
:100CF800B6B21960D30702D5202313432360002E10
:100D080001D01027AAE72022236893432360F8E73D
:100D18001A680D68101D4969186013682E0601D5F8
:100D2800196002E06D06FBD519800023039D23613D
:100D3800BFE71A68111D196015680021280062684C
:100D480000F09FF9002801D0401B606063682361B0
:100D58000023039A1370ACE72A00236906990598C3
:100D6800079DA8470130AED023689B0715D4099B7F
:100D7800E0689842A9DA1800A7E72200012306993B
:100D88000598079E1932B04701309CD00135E368B9
:100D9800099A9B1AAB42F0DCE9E70025F7E7C04661
:100DA800C6600000D7600000002310B5040003608F
:100DB8004360836081814366C281036143618361CB
:100DC800190008225C3000F0FFF80B4B24626362C4
:100DD8000A4BA3620A4BE3620A4B23630A4B9C4209
:100DE80005D00A4B9C4202D0094B9C4203D12000FB
:100DF800583000F043F910BD390F0000610F0000B2
:100E0800990F0000C50F0000F001002058020020D3
:100E1800C002002010B5034A0349044800F06CF8EA
:100E280010BDC04600000020FD2700001000002073
:100E380041680B4B10B50400994201D001F0DAFC6F
:100E4800A168084B994202D0200001F0D3FCE16868
:100E5800054B994202D0200001F0CCFC10BDC046E1
:100E6800F001002058020020C002002010B5094BF4
:100E7800094A04211A6009480022FFF795FF012258
:100E880009210748FFF790FF022212210548FFF7C2
:100E98008BFF10BD280300201D0E0000F00100206C
:100EA80058020020C002002010B5024800F0E7F800
:100EB80010BDC0463103002010B5024800F0E0F82C
:100EC80010BDC0463103002010B50400FFF7ECFF49
:100ED800236A002B02D0FFF7EFFF10BD044B2362FB
:100EE800044B1B68002BF6D1FFF7C0FFF3E7C046A1
:100EF800390E000028030020F7B5140000260090E2
:100F08000191A5686768013F04D52468002CF8D1D1
:100F18003000FEBDAB89012B08D90E22AB5E013330
:100F280004D029000098019B984706436835EAE7F2
:100F380070B50C000E25495F00F078F8002803DB37
:100F4800636D1B18636570BDA389024A1340A381B2
:100F5800F9E7C046FFEFFFFFF8B51F008B890500D2
:100F68000C001600DB0505D50E23C95E00220223FE
:100F780000F048F8A389054A28001340A3813200ED
:100F88000E23E15E3B0000F065F8F8BDFFEFFFFFC0
:100F980070B50C000E25495F00F034F80C22A35EF2
:100FA800421C03D1044A1340A38170BD8022520120
:100FB8001343A3816065F8E7FFEFFFFF10B50E2329
:100FC800C95E00F00DF810BD03008218934200D1ED
:100FD800704719700133F9E7004870474C01002049
:100FE800002370B5064D040008002B6002F0A7FB33
:100FF800431C03D12B68002B00D0236070BDC04672
:101008002C03002070B50400080011001A0000230A
:10101800054D2B6002F0CAFB431C03D12B68002B43
:1010280000D0236070BDC0462C03002070B50400BA
:10103800080011001A000023054D2B6002F0C1FBC7
:10104800431C03D12B68002B00D0236070BDC04621
:101058002C03002070B50400080011001A000023BA
:10106800054D2B6002F0E6FB431C03D12B68002BD7
:1010780000D0236070BDC0462C0300207047704725
:101088007047C9B28218904201D100207047037896
:101098008B42FBD00130F6E7F0B503690C6989B0E3
:1010A800039006910020A34263DB0B00013C14333C
:1010B800A50004935B190593039B143301935D19F1
:1010C800059B2F681E68380001363100FEF7FCFFCB
:1010D8000290B74227D3049B00279C46019E07979E
:1010E800624608CA30689446029A99B251431B0C6A
:1010F8005343C9190A0C9B1889B282B2521A07992C
:101108001F0C5218000C9BB21114C31A5B18191447
:1011180092B21B04134308C6059B07916345DFD2AF
:101128002B68002B2BD00699039801F0B9F90028F9
:101138001EDB0026019D049901C92B6887B29AB26B
:10114800D21B9219000C1B0C1B1A10141B181E140E
:1011580092B21B04134308C5059B8B42ECD2019A3B
:10116800A300D3181A68002A14D0029B01330293F3
:10117800029809B0F0BD2B68002B04D1013C019BFB
:10118800043DAB42F7D3039B1C61CCE71A68002AE5
:1011980004D1013C019A043B9A42F7D3039B1C619A
:1011A800E3E70000F0B514001D00C2699DB010947B
:1011B8001195259F0290002A10D1102000F028FEDA
:1011C800029B021ED86104D1EF21C04BC04801F038
:1011D80059FB0023436083600360C36011680029E2
:1011E8000BD001235268029893404A608B6000F04C
:1011F8000DFF0022029BDB691A602E1E1DDA0123F7
:101208006E00DE403B601196B24BB24A33409342C7
:1012180016D1B14B249A3603360B1360264301D1FD
:1012280000F07DFDAD4B269A0593002A02D0AC4B09
:10123800269A136005981DB0F0BD00233B60E3E7D4
:10124800109A119B0C920D930C980D990022002373
:10125800FFF7C0F8071E0BD00123249A1360269BC2
:10126800002B02D09F4B269A13609F4B0593E1E712
:101278001AAB01931BAB009302980C9A0D9B01F0DB
:10128800CFF91A9B0490310D059300D17BE00D9B9B
:1012980019971A03954B120B1343954A8E180C98FD
:1012A8000D9919000022934B04F072F8924A934B5F
:1012B80003F0A6FD924A934B02F046FD040030006D
:1012C8000D0004F0FBFC904A904B03F099FD0200DE
:1012D8000B002000290002F037FD04000D0004F087
:1012E800B1FC00220390002320002900FFF778F8C2
:1012F80000280BD0039804F0E1FC2B002200FFF734
:1013080069F843425841039B1B1A03930123139323
:10131800039B162B10D80C980D99039A7C4BD2007E
:101328009B181A685B68FFF75BF8002847D0039B97
:10133800013B039300231393059B9E1B00230693F5
:10134800731E03D50122931B069300230A93039B64
:10135800002B36DB039A0A9B944663440A930023C6
:1013680012920E93229B0124092B61D8052B02DDD2
:101378000024043B2293229B981E032862D8FEF780
:101388008FFE53553629059B1B9FDF19614BFA18B1
:10139800202A0FDD40239B1A9E405F4B3000FB182C
:1013A800DC40204304F0B8FC01225C4B7E1ECB18C5
:1013B800199276E7202320009B1A9840F2E71390B1
:1013C800BAE7069B039A9B1A069353420E9300238F
:1013D8001293C7E70123239A0F939446039B634410
:1013E8000B9301330893002B08DC012306E001234B
:1013F8000F93239B002B29DD0B930893029A00215E
:10140800D0690422150014354E1C9D4223D9416031
:10141800029800F0B9FD059000281FD1B021404B7B
:101428002B48059AFF31D2E60023E1E70023D2E7F3
:1014380000230F942293013B00220B93089313334C
:101448002392DBE701230F93023BF5E701231A0000
:101458000B930893F4E731005200D3E7029B059AF7
:10146800DB691A60089B0E2B00D9DEE0002C00D146
:10147800DBE0039B002B68DD0F21039A244B0A4015
:10148800D2009B181E685F68039B02251C110C9AEA
:101498000D9B14921593039BDB050AD5214B0C4039
:1014A8001A6A5B6A0C980D9903F068F81490159104
:1014B80001351C4B0993002C36D11498159932002C
:1014C8003B0003F05BF806000F005BE0F5600000EE
:1014D8000C6100000000F07F0F270000F1600000A1
:1014E800F4600000C5600000C46000000000F03F28
:1014F80001FCFFFF0000F83F61436F63A787D23FFD
:10150800B3C8608B288AC63FFB799F501344D33FEA
:10151800606200003204000012040000000010FEA7
:10152800656100003862000001231C4209D0ED18F3
:10153800099B30001A685B68390003F061FC0600FB
:101548000F00099B64100833B4E7039B02250C9E27
:101558000D9F002B16D00F225C422240D24BD200A6
:101568009B1830001A685B68390003F049FCCF4BC0
:10157800060009930F0000232411002C00D098E0E6
:10158800002BA0D1139B002B00D1A1E0002230003A
:101598003900C74BFEF724FF002800D198E0089BCC
:1015A800002B00D194E00B9B002B3EDD039B300009
:1015B800013B390009930022BE4B03F021FC0600D1
:1015C8000F000B9C0135280004F078FB32003B002B
:1015D80003F016FC0022B84B02F0B6FBB74B149090
:1015E8001591CB181593149A159B16921793002CE6
:1015F80072D1002230003900B14B03F0C9FE169AAF
:10160800179B06000F00FEF7FFFE002800D0AAE295
:101618008020000684461599300061440B00149A16
:101628003900FEF7DDFE002826D11B9B002B00DACF
:1016380069E1039A0E2A00DD65E19B4BD2009B18F5
:101648005C681B6806930794239B002B00DBE4E08F
:10165800089B002B00DDE0E00ED1069807990022D8
:10166800974B03F0CDFB02000B000C980D99FEF789
:10167800C1FE002800D179E200263700239B059C93
:10168800DB430993039700273100029800F0BEFC62
:10169800039B002B00D1B6E0002F05D09F4203D05A
:1016A8003900029800F0B2FC0399029800F0AEFCF1
:1016B800A9E00122144206D0099BAD181A685B689C
:1016C80003F09EFB0123099A64100832099254E73B
:1016D800039B089C099376E7734B621ED2009B1804
:1016E80018685968059BE31818930F9B002B49D07D
:1016F80002000B000020734902F040FF169A179B66
:1017080003F046FE059B149015911693390030009E
:1017180004F098FA050004F0D1FA02000B0030003A
:10172800390003F035FE169B30355C1C1D70149A89
:10173800159B06000F00FEF753FE002863D1320008
:101748003B0000205A4903F023FE149A159BFEF72C
:1017580047FE002800D0B9E0189B9C4200D164E7FE
:10176800149815990022534B03F04AFB0022149059
:101778001591504B3000390003F042FB16940600D7
:101788000F00C3E7169A179B03F03AFB14901591C4
:10179800059D3900300004F055FA040004F08EFA73
:1017A8000B0002003900300003F0F2FD3034189BC2
:1017B8002C70013506000F00AB4227D114981599FB
:1017C80000221C003F4B02F0BFFA02000B00300061
:1017D8003900FEF719FE002800D077E0149A159B0F
:1017E8000020384903F0D4FD02000B003000390016
:1017F800FEF7F6FD002800D117E72300013C227808
:10180800302AFAD01C00099B03933DE00022294BA3
:1018180003F0F6FA06000F00BBE7089F059E013F9C
:10182800BF19069A079B0C980D9902F0A7FE04F0C1
:1018380009FA050004F042FA069A079B03F0E0FA59
:1018480002000B000C980D9903F0A2FD2A0033004A
:101858003032013634001A709F4247D102000B0023
:1018680002F072FA069A079B06000F00FEF7CCFDFD
:10187800002829D1069A079B30003900FEF7AAFDF7
:10188800002801D0ED071FD40499029800F0BEFB90
:1018980000232370039B249A01331360269B002B9B
:1018A80000D1C7E41C60C5E4606200003862000033
:1018B8000000F03F0000244000001C400000C0FC75
:1018C800000014400000E03F039B099323001C0024
:1018D800013B1A78392A06D1059A9A42F7D1099A12
:1018E80001320992302201321A708CE70022C64B6D
:1018F80003F086FA002200230C900D91FEF76AFD92
:1019080000288ED0C0E70F9F0E9D069C002F14D094
:10191800229A012A00DDE4E0199A002A00D1DAE0CF
:10192800BA4A9B18069A0121D21806920A9A029876
:10193800D3180A9300F022FC0700002C0ED00A9B53
:10194800002B0BDD0A9A2300944200DD1300069A4F
:10195800E41AD21A06920A9AD31A0A930E9B002BFB
:1019680021D00F9B002B00D1D3E0049E002D14D072
:1019780039002A00029800F0C5FC049A010007000B
:10198800029800F013FC06000499029800F03EFB50
:101998000E9B04965B1B0E9305D031000E9A02989D
:1019A80000F0B0FC04900121029800F0E7FB129BC4
:1019B8000600002B00D1BCE11A000100029800F0DB
:1019C800A1FC229B06000025012B16DC0025109B9C
:1019D800AB420ED1119B1B03AB420AD18C4B119A1F
:1019E800134206D0069B0135013306930A9B013347
:1019F8000A93129B0120002B08D0336903339B0004
:101A0800F318586800F06AFB2023181A0A9B181864
:101A180002001F231A40184200D181E001339B1AAB
:101A2800042B79DD1C239B1A069AE418D218069217
:101A38000A9AD3180A93069B002B05DD1A0004990D
:101A4800029800F0C1FC04900A9B002B05DD3100D0
:101A58001A00029800F0B8FC0600139B002B61D016
:101A68003100049800F01CFD00285BDA039B0A2271
:101A7800013B099304990023029800F0EBFA0F9BAD
:101A88000490002B00D15BE1002339000A22029860
:101A980000F0E0FA0B9B0700002B4DDC229B022B89
:101AA80046DD0B9B002B00D0E8E5310005220298AB
:101AB80000F0D0FA06000100049800F0F1FC0028BC
:101AC80000DCDBE5059B059A5C1C31231370099B40
:101AD80001330993D6E536231A9A0E9D9B1A069C64
:101AE80020E7089B5D1E0E9BAB4208DB5D1B089B35
:101AF800002BF4DA069B089A9C1A002312E70E9B27
:101B0800129AEB1AD31812930E95069C0025089B7F
:101B180008E70E9A049942E7042B8CD01C3383E71C
:101B28001300FBE7039B0993089B0B93002BB5DD80
:101B38000F9B002B00D107E1002C05DD39002200A6
:101B4800029800F041FC07000397002D20D0796827
:101B5800029800F019FA041E0CD122002D4B2E48D1
:101B68002E49FFF734FB26003700ABE7039B089E9E
:101B78000993F9E739003A690C31023292000C30C6
:101B880000F076FE01222100029800F01DFC03906F
:101B9800059B0B9A0693013B9B1801220E93109B01
:101BA80013400C9331000498FFF776FA39000500CA
:101BB8000A90049800F074FC039A0B903100029884
:101BC80000F08AFC0122C368040030350892002B1B
:101BD80004D10100049800F063FC089021000298E9
:101BE80000F014FA069B229A5C1C089B13430C9A7B
:101BF800134315D1392D2ED00B9B002B01DD0A9DE7
:101C08003135069B1D703FE5000024403304000079
:101C18000000F07F656100000C610000EF02000029
:101C28000B9B002B04DB229A13430C9A13431ED1FF
:101C3800089B002BE5DD04990122029800F0C4FB03
:101C48003100049000F02CFC002802DCD9D1EB070D
:101C5800D7D5392DD3D13923069A137023001C0008
:101C6800013B1A78392A51D001321A700CE5089BC9
:101C7800002B03DD392DEED00135C2E7069B0E9A05
:101C88001D7093422DD000230A220499029800F077
:101C9800E1F9039B04909F4209D1390000230A22ED
:101CA800029800F0D7F90700039006947AE7390004
:101CB80000230A22029800F0CDF9002307000A2227
:101CC8000399029800F0C6F90390EEE700240B9BF5
:101CD800A34201DD1C00013C03970027059B01334B
:101CE800E41804990122029800F06EFB3100049078
:101CF80000F0D6FB0028B1DC01D1ED07AED42300FB
:101D08001C00013B1A78302AFAD0BDE4059A9A42A1
:101D1800A5D1099B0133099331231370B4E4154B02
:101D2800269A0593144B002A01D0FFF781FAFFF792
:101D380081FA229B012B00DC48E60120129D65E612
:101D48000B9B002B00DCA9E6002431000498FFF768
:101D5800A3F9059B303018550B9B01340500A342AD
:101D6800B4DD00230A220499029800F073F9049064
:101D7800EBE7C046E8600000F060000070B50500C1
:101D88000C1E10D0043C2368002B00DAE41828004D
:101D980000F0EAF81D4A1368002B05D1636014604F
:101DA800280000F0E9F870BDA34208D9206821187E
:101DB8008B42F3D119685B6809182160EEE71A00B5
:101DC8005B68002B01D0A342F9D911685018A042D2
:101DD8000BD120680918501811608342E0D11868A7
:101DE8005B68411811605360DAE7A04202D90C23FE
:101DF8002B60D5E7206821188B4203D119685B68EE
:101E08000918216063605460CAE7C046380300209F
:101E180010B5034B0100186800F026F810BDC04645
:101E28000C00002070B50F4E0D0031680400002929
:101E380002D100F00BFD30602900200000F006FD03
:101E4800431C03D101256D42280070BD0323C51C26
:101E58009D43A842F8D0291A200000F0F7FC013071
:101E6800F2D1EFE734030020F7B50322CB1C9343EC
:101E7800083305001F000C2B34D20C27B94233D885
:101E8800280000F071F8374E33681C00002C2FD161
:101E980039002800FFF7C6FF0400431C5FD13468EF
:101EA8000094009B002B4AD1002C52D023682800B4
:101EB800E3180099019300F0C9FC019B834248D1C3
:101EC80023682800FF1A3900FFF7ACFF013040D023
:101ED8002368DB19236033685A68002A33D1009BD2
:101EE800336019E0002BC9DA0C232B600020FEBDFB
:101EF8002168C91B20D40B290AD9E2192760A342FB
:101F080004D1326063681160536005E05A60F9E7F4
:101F18006268A3420ED13260280000F02DF820003C
:101F280007220B30231D9043C21A9842DFD01B1A98
:101F3800A350DCE75A60EFE723006468A6E7009C3B
:101F480063680093ADE71A005B68A342FBD10023E6
:101F5800DAE70C2328002B6000F00EF8C6E70760CC
:101F6800DAE7C0463803002010B50248FFF787F8C3
:101F780010BDC0463003002010B50248FFF780F8B6
:101F880010BDC0463003002070B5C46905000E00BE
:101F9800002C10D11020FFF73BFF041EE86105D18B
:101FA80022006B21174B184800F06CFC002343609B
:101FB80083600360C360E368002B0BD121220421F6
:101FC800280000F07DFCEB69E060DB68002B01D1A4
:101FD800002070BDB2009B181868002805D0026860
:101FE8001A6000230361C360F3E701210C00B440C9
:101FF800621D2800920000F063FC0028E8D04660CB
:102008008460EEE7F56000007661000070B5C6698F
:1020180005000C00002E0ED11020FFF7F9FE021E5D
:10202800E86104D18F21094B094800F02BFC466078
:1020380086600660C660002C07D0EB696268DB68C2
:1020480092009B181A6822601C6070BDF560000041
:1020580076610000F7B50F0001900C001E0000200B
:102068000D6914373B68013099B251431B0C534337
:1020780089190E0C9B191E0C89B21B045B1808C722
:102088008542EFDC002E22D0A368AB4219DC6168E0
:1020980001980131FFF778FF071E05D13A00BA21F0
:1020A8000C4B0D4800F0EEFB210022690C31023286
:1020B80092000C3000F0DCFB21000198FFF7A6FF2E
:1020C8003C002B1D9B00E31801355E602561200054
:1020D800FEBDC046656100007661000080220300F5
:1020E80052020020934201D21B0410308022520475
:1020F800934201D208301B0280225205934201D23A
:1021080004301B018022D205934201D202309B0089
:10211800002B03DB0130134200D1202070470368F5
:10212800010007221800104013420DD0063A002083
:10213800134205D10230034203D0D34010000B6094
:1021480070479B080B60FBE79AB2002A01D1102068
:102158001B0CDAB2002A01D108301B0A1A0701D178
:1021680004301B099A0701D102309B08DA07E9D429
:1021780001305B08E6D12020E2E7000010B50C0032
:102188000121FFF701FF002807D14621054C020075
:10219800054B2000FF3100F075FB0123446103610A
:1021A80010BDC0467661000065610000F0B50D699C
:1021B80016690F00140089B0B54204DB33000C0027
:1021C8002E0017001D0073190193A3687219616826
:1021D800934200DA0131FFF7D7FE0090002806D1BC
:1021E800B121464B4648009A490000F04BFB009A43
:1021F800731914329B00D31802930021130002981C
:10220800834229D32300B6001433049314379B194F
:10221800AD000393BC462B0063440793002305934A
:10222800230003991533994204D30C1B153CA408C9
:10223800A3000593079B9C4510D3019B002B05DD4C
:10224800029B043B02931B68002B52D0009B019A0F
:1022580018001A6109B0F0BD02C3D0E763461C68D4
:10226800A4B2002C1ED017000025049E01CE3B68A6
:10227800069383B2634319006B46000C1B8B6043C3
:10228800CB1806995B19090C4018190C41189BB218
:102298000D0C09041943039B02C7B342E6D8059BFA
:1022A800D3185D6063461C68240C1ED011681600A4
:1022B80008000027049D2B68000C9BB26343DB19C0
:1022C8001B18180489B20843306080CD70683F0C31
:1022D800674381B279181B0CC918039B0F0C04368D
:1022E800AB42E8D8059BD318596004239C44D21804
:1022F800A0E7019B013B01939FE7C0466561000091
:1023080076610000F7B50323150007000C001A409A
:102318001D4208D02849013A920052580023210052
:10232800FFF798FE0400AB10019342D0FD69002D21
:1023380011D11020FFF76CFD051EF86106D1B421FC
:102348002A001E4B1E48FF3100F09CFA0023436010
:1023580083600360C360AE68002E07D13800194956
:10236800FFF70CFF00230600A86003600122019B11
:1023780025001340019A52100192002B0CD0210025
:1023880032003800FFF712FF290004003800FFF779
:102398003DFE019B002B0CD03068002807D132008D
:1023A80031003800FFF702FF0023306003600600A9
:1023B800DCE72000FEBDC04628620000F560000092
:1023C8007661000071020000F0B50C001600236968
:1023D800571187B0FB180293013301934968A3682A
:1023E8000390019A934210DB0398FFF7CDFD002379
:1023F800010005001A00143198420CD1EF212A007F
:10240800254B2648490000F03DFA01315B00E8E71A
:1024180098000A500133BB42FADBFB43DB171F402D
:10242800BF002300C9191F20370022691433920006
:1024380005919A180740064228D00130C01B049025
:1024480000201E688C46BE4006436046066001CBED
:10245800049E0431F0409A42F3D82100153100233C
:102468008A4203D3131B153B9B089B00059AD3187C
:102478005860002801D1029B0193019B0398210019
:102488002B61FFF7C3FD280007B0F0BD40CB0E60FD
:1024980004319A42FAD8EEE76561000076610000DF
:1024A80030B50B6904690200E01A9C420FD114325E
:1024B8009B0014311400C918D218043A043915685D
:1024C8000B689D4204D001209D4200D2023830BDE5
:1024D8009442F2D3FBE70000F0B50C0087B00090FF
:1024E800110020001700FFF7DBFF051E10D10100C7
:1024F8000098FFF749FD021E04D1454B454846495F
:1025080000F0C0F9012345610361100007B0F0BD78
:102518000026B04203DA23003C001F000136616840
:102528000098FFF731FD021E03D1394B39483B496A
:10253800E6E72369143400939B00E31801931423FE
:102548009C463B69BC449B00634402930300C660FD
:10255800002014330393059304946146049B20CB15
:10256800049308C98C46A9B20E0099B2711A0918C9
:102578002D0C1B0C0814EB1A1B18181489B21B0419
:102588001943059B02C30593029B6345E5D83B00AD
:10259800029D153300219D4203D3EB1B153B9B087D
:1025A8009900039B5B1861180E1D350004330293D4
:1025B800039B1B1B0393039B9C46019BAC449D42BE
:1025C80012D3019801310023884204D30300033356
:1025D8009B1B9B089B0002995B18043B1968002908
:1025E80011D0009B136190E7070008CD98B2C0197D
:1025F80000141C0C0419DB1920149BB22404234377
:1026080064462360D7E7009901390091E5E7C046A1
:102618006561000076610000370200004502000095
:10262800F7B5012116001F00FFF7AEFC041E05D107
:102638002200254B2548264900F024F93B037D005C
:102648001B0B6D0D02D08022520313430193002E01
:1026580025D068460096FFF762FD009900281CD037
:10266800019B20221E00121A96403200C3400A43E2
:1026780062610193019EA661731E9E410136266127
:10268800002D14D03526134BED18089B2D181D600E
:10269800099B361A1E602000FEBD6161EAE701A8A9
:1026A800FFF73DFD019B012663612030E7E70A4BF8
:1026B800C018089B1860094BF3189B00E318586969
:1026C800FFF70CFD7601E3E7656100007661000025
:1026D8000F030000CDFBFFFFCEFBFFFFFFFFFF3F17
:1026E800F7B50C228B5E05000C001A075AD44A680D
:1026F800002A02DC0A6C002A4FDDE76A002F4CD062
:10270800002280212E682A601A0049010A400B42E3
:1027180034D0626DA3895B0706D56368D21A636BF0
:10272800002B01D0236CD21A00232800E76A216A03
:10273800B8470C23E25E431C06D129681D292ED810
:102748002B4BCB40DB072AD500236360236923602A
:10275800D20405D5431C02D12B68002B00D160653B
:10276800616B2E60002918D023004433994202D0AF
:102778002800FFF703FB002363630EE00123280012
:10278800216AB8470200431CC4D12B68002BC1D072
:102798001D2B01D0162B1DD12E60002021E04023D7
:1027A80013431BE00E69002EF7D00F680E60BA1BAA
:1027B800019200229B0700D14A69A260019B002B6D
:1027C800EBDDA36A32001F002800019B216AB8478D
:1027D800002807DC4023A28913431BB20120A381F0
:1027E8004042FEBD019B36181B1A0193E6E7C0461E
:1027F800010040200B6970B505000C00002B02D1C8
:102808000025280070BD002804D0036A002B01D1E0
:10281800FEF75AFB0C22A35E002BF1D0626ED207A2
:1028280004D49B0502D4A06DFEF729FC28002100E2
:10283800FFF756FF636E0500DB07E2D4A3899B050B
:10284800DFD4A06DFEF71CFCDBE70000002370B5A9
:10285800064D040008002B6000F0BEFF431C03D1A6
:102868002B68002B00D0236070BDC0462C030020CD
:10287800002310B59A4200D110BDCC5CC45401337A
:10288800F8E700007FB514001A00094B05001B6823
:102898000E00D868074B002C01D1074B1C000749D4
:1028A800019302942B00009600F056F800F064F8AB
:1028B8000C000020DA61000015620000E7610000EA
:1028C80070B50B0C150C002B1ED1002D0CD189B244
:1028D80094B24C432100FFF7C7FA051E1BD0220013
:1028E8000021FEF771FB16E02B1C0C1C89B292B27A
:1028F8004A439BB2A1B25943140C0C19230C07D1BB
:10290800240492B21443E5E7002D01D1141CEDE72D
:102918000C2300250360280070BD82B0002900D177
:1029280001A9101E06D0002B06D013780B60107872
:10293800431E984102B0704702204042FAE7030064
:10294800081E05D0FF2A04D98A2201201A604042B5
:10295800704701200A70FBE70EB417B5054C05ABAC
:1029680004CB01002068019300F034F81EBC08BCB9
:1029780003B018470C000020062010B500F022FA1A
:10298800012000F0D6FE936810B5013B9360002B40
:1029980004DA9469A34207DB0A2905D01368581C96
:1029A80010601970080010BD00F034F90100F9E753
:1029B800F8B506000F001400D518AC4201D100206C
:1029C80007E021783A003000FFF7DDFF0134431CAF
:1029D800F3D1F8BDF0B59FB00D0016001C000290B1
:1029E800002804D0036A002B01D1FEF76DFA6B6E44
:1029F800DB0705D4AB899B0502D4A86DFEF73FFB26
:102A0800AB891B0702D52B69002B13D1290002982B
:102A180000F042F900280DD06B6EDB0703D50120CA
:102A280040421FB0F0BDAB899B05F8D4A86DFEF7F6
:102A380027FBF4E70023292102AA52180B9320331D
:102A48001370013102AA1033521813700594340020
:102A58002378002B01D0252B48D1A71BB4420BD0DB
:102A68003B00320029000298FFF7A2FF013000D195
:102A7800AEE00B9BDB190B932378002B00D1A7E06A
:102A88000122532100235242079202AA5218661CBF
:102A980006930993089313701C93594F31780522B4
:102AA8003800FEF7EEFA741C069906AB00281FD111
:102AB800CA0604D55327202202A8C01902700A07A3
:102AC80004D553272B2202A8C019027032782A2A6B
:102AD80015D0340000200A27DA682178661C3039BE
:102AE800092950D9002811D009920FE00134AFE725
:102AF8000123C01B83400B4326000693CDE7059AAC
:102B0800101D12680590002A37DBDA6022782E2A19
:102B18000CD162782A2A3BD1059A0234111D126819
:102B28000591002A01DA012252425A60354E0322E9
:102B380030002178FEF7A5FA06AF002806D040231A
:102B4800801B8340069A013413430693217806229A
:102B58002D48661C3976FEF794FA002847D02B4B8F
:102B6800002B29D10722059B07339343083305938C
:102B78000B9B03995B180B9369E75242DA600222B8
:102B88000A430692C2E77A43340001205218A4E7A8
:102B980000220A205A601100130001342278661CB2
:102BA800303A092A03D9002BC0D00791BEE7414328
:102BB800340001238918F1E705AA009239002A0098
:102BC800134B0298FDF746FD0390039B0133CFD1C9
:102BD8006B6EDB0705D4AB899B0502D4A86DFEF7A5
:102BE8004FFAAB895B0600D519E70B9819E705AAD8
:102BF800009239002A00064B0298FDF7C9FFE3E767
:102C0800166200001C620000206200005D060000E1
:102C1800B9290000F8B506000D001400002804D0FA
:102C2800036A002B01D1FEF74FF9A369A360A389BA
:102C38001B0702D52369002B09D12100300000F0C1
:102C48002BF8002803D001256D422800F8BD236920
:102C58002068EFB2C01A6369EDB2834205DC210037
:102C68003000FFF7C7FD0028EDD1A3680130013B14
:102C7800A36023685A1C22601F706369834204D0D2
:102C8800A389DB07E1D50A2DDFD121003000FFF74A
:102C9800B1FD0028D9D0D6E72B4B70B505001868D0
:102CA8000C00002804D0036A002B01D1FEF70CF9B0
:102CB8000C22A35E1A0722D4DA0607D409222A6056
:102CC800373201201343A381404270BD5A0713D500
:102CD800616B002908D023004433994202D02800B0
:102CE800FFF74CF8002363632422A389934300224F
:102CF800626022691BB2226008221343A381226901
:102D0800002A07D19A0501D51B0603D52100280002
:102D180000F0D2F80C23E25E012113000B400A42B6
:102D28000CD00023A36063695B42A3610020236980
:102D38008342CAD11306C8D54023C2E7910700D4FD
:102D48006369A360F2E7C0460C00002010B5884212
:102D580002D98B18984208D300239A4207D0CC5C3A
:102D6800C4540133F9E78B5C8354013AFBD210BD9C
:102D780070B504000D001F2904D916230360012033
:102D8800404270BDC36B002B04D08A009B181A68A0
:102D9800002A08D1200000F031F82A0001002000A4
:102DA80000F01AF8EDE7012A09D0511C03D11623C7
:102DB80003600120E5E70021280019609047002002
:102DC800DFE7000010B5034B01001868FFF7D0FFDC
:102DD80010BDC0460C000020002370B5064D04004D
:102DE800080011002B6000F0D1FC431C03D12B68B4
:102DF800002B00D0236070BD2C03002010B500F01C
:102E0800B6FC10BDF7B506000C001500002905D169
:102E18001100FFF729F804002000FEBD002A03D1A5
:102E2800FEF7ACFF2C00F7E700F0A4F80700854296
:102E380002D84308AB42EFD329003000FFF714F85B
:102E48000190002801D1019CE6E72A00BD4200D983
:102E58003A0021000198FFF70BFD21003000FEF732
:102E68008DFFF0E7F0B50E001D000E23C95E1400BB
:102E780097B000290CDAB2898023110019401A4250
:102E880014D18023DB0000202960236017B0F0BD37
:102E98006A4600F04BF80028EDDBF02301991B028D
:102EA8001940044BC9184B425941EAE70021402315
:102EB800E9E7C04600E0FFFFF7B502268B89050069
:102EC8000C00334206D023004733236023610123DB
:102ED8006361F7BD6A4601ABFFF7C4FF009F280096
:102EE8003900FEF7C1FF0C22A35E002806D19A051F
:102EF800EFD4032293431E43A681E4E780221343C1
:102F0800A381019B206020616761002BE1D028002C
:102F18000E23E15E00F01CF80028DAD00323A28912
:102F28009A43023B1343A381D3E70000002370B503
:102F3800064D0400080011002B6000F00AFC431C39
:102F480003D12B68002B00D0236070BD2C03002018
:102F5800002370B5064D040008002B6000F00DFC3E
:102F6800431C03D12B68002B00D0236070BDC046E2
:102F78002C0300200B1F1B68181F002B01DA0B58AD
:102F8800C018704780B500AF00F09EFA00F05EFCF4
:102F980000F066FCFCE7000080B582B000AF0200DC
:102FA800FB1D1A70FB1D1B787F2B09D8FB1D1B7896
:102FB8001A001F231A40044B012191400A001A608D
:102FC800C046BD4602B080BD00E100E080B582B0D9
:102FD80000AF0200FB1D1A70FB1D1B787F2B0AD85F
:102FE800FB1D1B781A001F231340054901229A4034
:102FF800C0235B00CA50C046BD4602B080BDC04673
:1030080000E100E090B583B000AF02003960FB1D1D
:103018001A70FB1D1B787F2B28D82F4AFB1D1B78A5
:103028005BB29B08C0339B009B58FA1D12781100B5
:1030380003220A40D200FF2191400A00D2431A40DD
:1030480011003B689B01FF221A40FB1D1B781800EA
:1030580003230340DB009A401F48FB1D1B785BB22B
:103068009B080A43C0339B001A5031E01B4AFB1DE2
:103078001B7819000F230B40083B9B0806339B0065
:10308800D31804331B68FA1D1278110003220A4072
:10309800D200FF2191400A00D2431A4011003B6838
:1030A8009B01FF221A40FB1D1B78180003230340D5
:1030B800DB009A400948FB1D1B781C000F232340A6
:1030C800083B9B080A4306339B00C31804331A6065
:1030D800C046BD4603B090BD00E100E000ED00E051
:1030E80080B586B000AFF860B9607A60FB681B688D
:1030F8007B617B68DA437B6913407B61BB687A68D4
:103108001A407B691A43FB681A60C046BD4606B080
:1031180080BD000080B582B000AF0200FB1D1A70B0
:103128000449FB1D1B78044A8B50C046BD4602B0BB
:1031380080BDC04600F00A400813000080B582B088
:1031480000AF0200FB1D1A70064B074A9818FB1DBA
:103158001B780F221900FFF7C3FFC046BD4602B017
:1031680080BDC04600F00A400411000080B582B05E
:1031780000AF0200FB1D1A70064B882252019818F6
:10318800FB1D1B7803221900FFF7AAFFC046BD46A6
:1031980002B080BD00F00A4080B582B000AF0200E6
:1031A800FB1D1A70064B074A9818FB1D1B78302226
:1031B8001900FFF795FFC046BD4602B080BDC04666
:1031C80000F00A400411000080B500AF054A064B24
:1031D800D3580449054A1340034A8B50C046BD469C
:1031E80080BDC04600F00A4008110000FFFEFFFF46
:1031F80080B500AF054A064BD358044901229343D2
:10320800034A8B50C046BD4680BDC04600F00A4008
:103218000811000080B500AF054A064BD358044991
:10322800802252011343034A8B50C046BD4680BDDD
:1032380000F00A400411000080B582B000AF786049
:103248007A6880231B010349D150C046BD4602B0AD
:1032580080BDC0460100002680B582B000AF78600E
:103268007B68034A03499950C046BD4602B080BDF9
:1032780004080000030000B180B582B000AF786098
:10328800054A7B689B00D318043381221A60C04624
:10329800BD4602B080BDC0460080424080B582B0C5
:1032A80000AF7860396006493B6880221A437B6822
:1032B8009B00CB1804331A60C046BD4602B080BDDF
:1032C8000080424080B582B000AF7860396006491E
:1032D8003B68064A1A437B689B00CB1804331A6084
:1032E800C046BD4602B080BD008042408000040058
:1032F80080B582B000AF786039607A6895235B0149
:103308003968D150C046BD4602B080BD80B582B094
:1033180000AF786039607B6803493A685A50C04604
:10332800BD4602B080BDC046D012000080B582B054
:1033380000AF78607A6880231B010349D150C046EA
:10334800BD4602B080BDC0460100002680B582B0EF
:1033580000AF78607B68034A03499950C046BD4670
:1033680002B080BD04080000030000B180B582B03F
:1033780000AF78607B68034A01219950C046BD467A
:1033880002B080BD0811000080B582B000AF78603F
:1033980039607B68054A9A583B681A437B68034939
:1033A8005A50C046BD4602B080BDC0462810000035
:1033B80080B582B000AF78607A6880231B0103492A
:1033C800D150C046BD4602B080BDC04601000026AF
:1033D80080B582B000AF78607B68034A0349995092
:1033E800C046BD4602B080BD04080000030000B11D
:1033F80080B582B000AF78607A6888235B01D358C3
:1034080001221A4311007A6888235B01D150C04613
:10341800BD4602B080BD80B582B000AF786039602B
:103428007B688822520194466344C022520239685C
:103438001800FFF755FEC046BD4602B080BD00002B
:1034480080B584B000AFF860B9607A60FB68104A54
:10345800944663440F4AB9681800FFF741FEFB68B9
:103468000D4A9446634479683F221800FFF738FEF6
:10347800FB680A4A9818FB68084A9B5801221340BF
:1034880001221900FFF72CFEC046BD4604B080BDDE
:1034980010110000FFFF00001411000004110000CB
:1034A80080B582B000AF786039607B68054A9A5869
:1034B8003B681A437B6803495A50C046BD4602B070
:1034C80080BDC0462810000080B500AF00F018F895
:1034D80000F046F800F064F800F07AF800F09CF884
:1034E8001020FFF773FD1020FFF756FD0F20FFF7A0
:1034F8006DFD0F20FFF750FDC046BD4680BD0000A2
:1035080080B500AF124B1800FFF7A6FE114B18004C
:10351800FFF7A2FE104B1800FFF718FF0F4B18001B
:10352800FFF756FF0A4B1800FFF786FE094B1800F5
:10353800FFF782FE084B1800FFF7F8FE074B18004C
:10354800FFF736FF102000F085FAC046BD4680BD63
:1035580000000A4000200A40004008400080104057
:1035680080B500AF02211420FFF798FE0221152034
:10357800FFF7A8FE2320FFF77FFE084A8023DB0120
:1035880019001000FFF7B4FE044A8023DB0119007C
:103598001000FFF7BBFEC046BD4680BD00000A40D4
:1035A80080B500AF0020FFF7B5FD0020FFF7DEFD76
:1035B800FFF71EFEFFF708FE0020FFF7EDFD0020D5
:1035C800FFF7BCFDFFF726FEC046BD4680BD0000E4
:1035D80080B500AF0D4A0E4B1900100000F000FB3B
:1035E8000A4A0C4B1900100000F01AFB074B012186
:1035F8001800FFF7C9FE00211020FFF703FD034B59
:103608001800FFF7B3FEC046BD4680BD0040084025
:103618002C6400003064000080B500AF124A134BE0
:103628001900100000F084FA0F4A114B190010001D
:1036380000F04AFA0C4B00211800FFF7ECFE0A4B89
:1036480003221A211800FFF7FBFE074A8023DB003C
:1036580019001000FFF724FF034B1800FFF7C8FEFE
:10366800C046BD4680BDC04600801040446400008E
:103678004864000080B582B000AF78607A68812322
:103688005B01D358DBB21800BD4602B080BD000014
:1036980080B500AF084B1800FFF7ECFF0300012BC3
:1036A80005D1064B1B685A1C044B1A6000E0C04643
:1036B800C046BD4680BDC0460040084040030020CB
:1036C80080B582B000AF114B7B60114B3B6007E0C7
:1036D8007A68131D7B603B68191D396012681A608F
:1036E8003A680C4B9A42F3D30B4B3B6004E03B68BF
:1036F8001A1D3A6000221A603A68084B9A42F6D3BB
:1037080000F012F8FFF73EFCC046FDE79C6400009D
:1037180000000020D4010020D4010020D0030020A4
:1037280080B500AFC046FDE780B500AFC046BD46D6
:1037380080BD80B582B000AF7860C046FDE780B537
:1037480082B000AF786001235B421800BD4602B02A
:1037580080BD80B582B000AF786039603B68802258
:1037680092015A6000231800BD4602B080BD80B5A2
:1037780000AF01231800BD4680BD80B582B000AF00
:10378800786001231800BD4602B080BD80B582B0C4
:1037980000AF7860396002F007FB030016221A6058
:1037A80001235B421800BD4602B080BD80B584B0DD
:1037B80000AFF860B9607A6000231800BD4604B015
:1037C80080BD80B584B000AFF860B9607A6000232E
:1037D8001800BD4604B080BD80B584B000AF7860E5
:1037E800114B1B68002B02D10F4B104A1A600E4B6D
:1037F8001B68FB600C4B1A687B68D2180C4B9A420A
:1038080007D902F0D1FA03000C221A6001235B42A7
:1038180006E0054B1A687B68D218034B1A60FB68F0
:103828001800BD4604B080BD3C030020D003002032
:103838000080002080B584B000AFF860B9607A607D
:103848007B681800BD4604B080BD000080B500AF9D
:10385800024B01221A70C046BD4680BD44030020B9
:1038680080B582B000AFFB1D00221A7033E01F4BF9
:103878001B683B60FB1D1A781D4913005B009B18F1
:103888009B00CB1808331B683A68D11AFB1D1A78BD
:10389800174813005B009B189B00C31804331B8850
:1038A800994213D3FB1D1A78114913005B009B182A
:1038B8009B00CB1808333A681A60FB1D1A780C492C
:1038C80013005B009B189B005B589847FB1D1A78F8
:1038D800FB1D01321A70074B1B78FA1D12789A42A9
:1038E800C5D3C046C046BD4602B080BD40030020D7
:1038F800C80100204403002080B582B000AF786082
:103908007B68064A9B5801221340013B5A425341A7
:10391800DBB21800BD4602B080BDC04608110000E9
:1039280080B500AF0D4B1A680D4B1A600D4A0E4B4F
:10393800D1580E4B1B785A1CD0B20C4A10701A0082
:10394800C9B20B4B9954094B1B785BB2002B02DAB6
:10395800064B00221A70C046BD4680BD40030020B9
:10396800CC0300200080104024110000C803002070
:10397800480300200EB490B5A4B000AF7860A0232F
:10398800FB18BB60BA689C23FB1819680C23FB184A
:10399800180002F0FDF98F23FB1800221A7016E0B8
:1039A800C046144B1800FFF7A7FF031EF9D18F205C
:1039B8003B181B780C22BA18D35C19007A68892343
:1039C8005B01D1503B181A783B1801321A708F23CB
:1039D800FB181C780C23FB181800FCF759FB030094
:1039E8009C42DDD3C046C046BD4624B090BC08BC4E
:1039F80003B018470080104080B500AF0F4B1B780C
:103A0800002B18D00E4B1A680E4B1B68D31A642B68
:103A180012D90D480D4A0E4B1900FFF7ABFF074BA3
:103A28001B781A00094B00211800FDF7CDFA034B4B
:103A380000221A7000E0C046BD4680BDC8030020C1
:103A480040030020CC0300200080104048030020E1
:103A5800A860000080B584B000AF78607A68931ED3
:103A6800043BC046FCD2FB60C046BD4604B080BDE6
:103A780080B586B000AFF860B9607A60FB681B68F3
:103A88007B617B68DA437B6913407B61BB687A683A
:103A98001A407B691A43FB681A60C046BD4606B0E7
:103AA80080BD80B582B000AF78607A6888235B01FA
:103AB800D3580122934319007A6888235B01D150B7
:103AC800C046BD4602B080BD80B582B000AF786008
:103AD80039607B681800FFF7E4FF7B688822520191
:103AE80098183B681B881A003B689B7813433A6810
:103AF800928813430C4A1900FFF7BAFF7B680B4AF8
:103B080098183B689A793B68DB791343DAB23B68CB
:103B18001B7A1343DBB27E221900FFF7A9FFC046C8
:103B2800BD4602B080BDC0461867020004110000FF
:103B380080B582B000AF786039603B681B781900A7
:103B48007B68064A99503B685B7819007A6880233D
:103B58005B01D150C046BD4602B080BD08100000D0
:103B680080B586B000AFF860B9607A60FB681B6802
:103B78007B617B68DA437B6913407B61BB687A6849
:103B88001A407B691A43FB681A60C046BD4606B0F6
:103B980080BD000080B582B000AF786039607B6876
:103BA80003493A685A50C046BD4602B080BDC04677
:103BB8000818000080B582B000AF786039607B6873
:103BC800064A94466344C022920539681800FFF7F4
:103BD800C7FFC046BD4602B080BDC04604180000FD
:103BE80080B582B000AF786039603B681B781900F7
:103BF8007B68094A99503B685B7819007A6880238A
:103C08005B01D1503B689B7819007B68034A995047
:103C1800C046BD4602B080BD081000000C1100006F
:103C280080B582B000AF786039603B685A687B68BD
:103C380011001800FFF7AEFF3B681B78222B1FDC32
:103C4800102B04DA002B15D0022B13D018E0103BF0
:103C58001A4ADA401300012213405A1E9341DBB27C
:103C6800002B0DD080239A057B6811001800FFF700
:103C7800A1FF06E07B6800211800FFF79BFF00E02A
:103C8800C0463B6819697B680022180000F01AF8E2
:103C98003B68D96878680023002200F02FF83B6859
:103CA8001A783B681B7A1343DBB219007B68044A15
:103CB8009950C046BD4602B080BDC046050005000B
:103CC8000418000080B586B000AFF860B960FB1D2D
:103CD8001A70FB68084A944663447B61FB1D1B7895
:103CE8009B007A69D3187B617B69BA681A60C04601
:103CF800BD4606B080BDC0461018000080B586B02D
:103D080000AFF860B9607A601A00FB1C1A70FB6893
:103D18000B4A944663447B61FB1C1B789B007A69C1
:103D2800D3187B61BA687B681A431100054A7B691E
:103D38001800FFF715FFC046BD4606B080BDC04657
:103D48003018000077770200F0B54F464646D64651
:103D5800C0B50D0382B0009201934E00C300CC0F92
:103D6800690A450F9C46009A019B0D435F001903A1
:103D7800D80F009B490A5B0F1943009B760D7F0DF6
:103D8800DA00F31B844258D0002B13DD002F00D03B
:103D980088E00800104300D159E1581E012B00D1DA
:103DA800C2E2B14FBB4200D141E1382800DD6AE2EE
:103DB800030064E1002B00D1B1E0BB1B002E00D052
:103DC800E1E164462C4300D176E25C1E012B00D170
:103DD800E8E2A54EB34200D1B7E2382C00DC6BE331
:103DE800541EA242924152428D1AA0461E0004005F
:103DF8002A0268D443461F1D47459B415B42ED1884
:103E08002B0200D49DE3984A0136964200D1EBE09C
:103E1800964A73052A405B0D5107FF0852020F436B
:103E2800120B1B051343E40723433800190002B0A3
:103E3800E0BCBA46B146A846F0BD002B00DCD7E08E
:103E4800002F00D09AE00800104300D1FFE0581E70
:103E5800012B00D148E2844FBB4200D1E7E038286B
:103E680000DCB8E280221204154200D149E31E00AA
:103E78000023150098467C4B01369E4200D1B3E0E2
:103E88007A4B01211D4043465A081940EF070A435F
:103E980017436D087B07B3D00F233B40042BAFD0EB
:103EA800B846A7E77048864200D1C0E0382B00DC4E
:103EB800E2E001235B4263449C45804140422D1A65
:103EC80098462B0296D501235B429846684D2800F8
:103ED800FCF7AEFA0300083B20214046CA1AD0403E
:103EE800020040469D4098402A438046B34200DA8B
:103EF80072E1981B43460130091A45468B40C5407C
:103F08005E1EB34117008F402B431F43C2403B0046
:103F1800150000261343BDD10027002281E7554F25
:103F2800731C3B4200D01BE163460F002B43174331
:103F3800002E00D0C4E1002B00D145E2002F00D1B3
:103F480007E163469B1A9846C445B6416B1A764208
:103F58009B1B80263604334200D1CBE26346D31A3A
:103F68009A4292411F00491B52428A1A9C461743A3
:103F780000D0EDE204000023002252E73A488642CE
:103F880055D0382B00DD48E18020000401431F2B69
:103F980000DDE3E12027F81A824608005746B840BA
:103FA800814610004F46D840074338005746BA406C
:103FB800D940571EBA416D18104360448046E04509
:103FC800804140422D182B0200D554E743465B0739
:103FD80000D1B9E20F2342461340042B00D009E771
:103FE80033004246D20834E033000022002718E7A5
:103FF800002B00D18FE0BB1B002E00D033E16046C0
:10400800284300D140E2581E012B00D10AE2164E87
:10401800B34200D185E2382800DC87E280252D04F0
:10402800294200D19CE21E000023984623E76346FC
:104038006E07D8080643ED0837002F4311D08022B9
:1040480012032A4312033700074B120BE9E66246B4
:10405800D2086E071643044AED089342ECD03700A5
:10406800D6E0014B0022DCE6FF070000FFFF7FFFE0
:10407800FFFF7F00FE0700008020000401431F2B84
:1040880000DDB1E02027F81A824608005746B840FC
:10409800814610004F46D840074338005746BA407B
:1040A800D940571EBA416D1A104363461B1A9C45E6
:1040B8008041984640422D1A2B0287D56D026D0A21
:1040C800002D00D003E74046FCF7B2F9030018338F
:1040D8001F2B00DC00E74246083882409E4200DD84
:1040E80091E09B1B581C1F2800DCF8E117001F3BC0
:1040F800DF40202805D040231B1A9A40531E9A41BE
:104108001743002F3CD000267B0700D0C4E63500BB
:10411800B846330065E7CB48731C034200D085E0FE
:1041280063462B43002E00D092E10F001743002B6B
:1041380000D1D8E1002F0CD06244624580416D184F
:1041480040422D182B0200D5F2E1170094462F4368
:1041580016D063466F07D80807430023ED0857E0D9
:1041680063469B1A9846C445BF416B1A7F42DB1BC6
:104178001F0200D5AEE047461D001F43A0D1002412
:10418800002300224DE6B04CA74200D1DDE0382BD9
:1041980000DD85E08024240425431F2B00DDECE0AE
:1041A8002026F41AA1462C004E46B4406646DE404E
:1041B8003443A04666464C46A640DD40741EA641E0
:1041C8004446491B3443131B9A4292415242984633
:1041D80004003E008D1A6FE7F61A03009B4D154048
:1041E8005B0700D0F6E6FBE618000F002038C74052
:1041F800202B03D04020C31A99400A43531E9A41EA
:104208001000384351E79149F31A0A405707D50877
:104218002A035B05120B5B0D03E680231B041D427A
:1042280000D1BBE01D000023984624E6864883425F
:1042380000D1DAE6624462458041691840420918B3
:10424800C8075208104380464D08520705D00F2270
:104258001E000240042A00D0CCE542466F07D2086F
:1042680017430D09D4E77848874200D1D5E0382BA9
:1042780000DCB2E080252D04294200D14CE1002366
:104288003E009846F7E50122524262449445804137
:1042980040422D1A90461E002A0200D513E6A9E5D1
:1042A800531E9A42924152428D1A984604003E008B
:1042B8002B0200D507E69DE504000D00D208C8E6EC
:1042C800002B00D0E3E0002F3FD1802200245E4B7A
:1042D8001203A6E56346D31A9A4292414D1B5242F5
:1042E80098460400AD1AEBE6624416006645804124
:1042F8006A1840421218130200D49DE0534973080B
:104308000A40D107194357085B0700D1FEE00F2385
:104318000B40042B00D1F9E00B1D98468845AD41B0
:104328006D420223ED195CE663469B1A9C45804169
:104338006D1A40422D1A98462B020DD443466F073A
:10434800DB081F43ED08012362E74E07D20804008B
:104358001643CD0870E604000126AFE618000F00EA
:104368002038C740202B03D04020C31A99400A4365
:10437800531E9A41100038431FE61C002E00203CB3
:10438800E640202B05D04024E31A9D4063462B438A
:104398009C466446631E9C41344314E701236344EE
:1043A800984627E56346D31A9A4292414D1B5242DA
:1043B800AD1A98462B02CED443466F07DB081F433D
:1043C80004000123ED0823E7002F00D1D7E60400FD
:1043D8000D009446BDE60300D9E58020000405439E
:1043E8001F2B6BDC2020C01A804628004646B040B0
:1043F8006646DE400643B14660464646B040DD406C
:10440800461EB0414E464919304380469044904577
:10441800924152423E005518D5E54E07D208164340
:10442800CD0809E663469E189642924169185242A1
:104438008A18130200D561E75707F60801233743A6
:10444800D508E5E6FE070000FF070000FFFF7FFF35
:10445800002BE2D06346DE086B071E430B00ED0815
:10446800134300D1E8E580231B031D4206D0C8088A
:10447800184203D10500D60849070E43730FF6000A
:10448800F6085B071E43D7E50D00D208E1E5634651
:10449800DE086B071E43ED08002F00D1CCE5802312
:1044A8001B031D42EAD0CF081F42E7D1D6084907AF
:1044B80004003D000E43E1E723006EE618002E00DD
:1044C8002038C640202B05D04020C31A9D406346A3
:1044D8002B439C466046431E9841304395E7202174
:1044E8000023091A0EE50023002F00D1BAE50D00BC
:1044F800904676E547461F4300D140E61D00C44676
:1045080027E60122624490461E0073E4C9087F072B
:1045180002230F4315097BE6531C98460D003E0005
:1045280068E4D6084B071E43CD0885E5030057E726
:10453800114BD2082B405F0717435A02120B012375
:104548006FE43300B8464CE54346DA08330080E5AB
:1045580032420AD0084B04001A40674601235BE444
:10456800013290460D001E0044E4DB0857071F4344
:1045780004000023D5084BE6FFFF7FFFF0B5DE46B9
:10458800454657464E46E0B587B0009201930B0367
:104598001B0B9B46CA0F4B00040080465B0D029222
:1045A80000D1BFE08F4A934238D05946420FC90024
:1045B8000A43802109041143C20090468A4A894669
:1045C80092469A44002300240393009E019F3B03D4
:1045D8001B0B7A0030009B46520DFD0F002A00D1BC
:1045E8007FE0804B9A426ED05946730FC9000B4347
:1045F8008021090419438B467B49F3008C465146B8
:1046080062448A1A92460021029E6E40F6B20F2C2E
:1046180000D9F9E0754AA400125997465A46024350
:10462800914600D0B6E09A460223904608240393A8
:10463800CBE72E0000210023002288461B051343E8
:10464800F60733434046190007B0F0BCBB46B246F4
:10465800A946A046F0BDCB464346029D03990229D0
:1046680000D1FAE1032900D1A1E00129E1D0604A93
:10467800524490464446002C00DC00E25A0704D01D
:104688000F221A40042A00D07FE22E00DA085B4687
:10469800DB0106D55946574B802419408B46E40068
:1046A8005444554B9C4209DC5B465B0713439846D0
:1046B8005B4664055A02120B630DBFE70021002216
:1046C8008846484BBAE75B46009A13434B4A9446E0
:1046D800E244002B59D102221443002202219346BE
:1046E80092E75B46009A134349D05B46002B00D102
:1046F800A4E15846FBF79CFE030002000B3B1D2774
:10470800009EFB1A11005846DE40083988403300E5
:1047180003439B46009B8B40394952448A460021FB
:10472800924471E75B460343994621D05B46002BD0
:1047380000D171E15846FBF77BFE0B235B429C4698
:104748000200844466461D239B1B26001100584620
:10475800DE400839884033000343994623008B40E4
:104768009846284B00249B1A9A46002303932CE76B
:10477800002398469A4601330424039325E701222F
:1047880014430022012193463EE7032303211C43DF
:10479800330039E79A460323D9460C24039314E7D8
:1047A80000238022984600260E4B120346E78022FB
:1047B800594612030A43120398462E00094B120B5E
:1047C8003CE7802249461203114202D05946114261
:1047D800F0D080224B4612031A431203029E014B6B
:1047E800120B2BE7FF07000001FCFFFF54640000D9
:1047F800FF030000FFFFFFFEFE07000001F8FFFFB8
:10480800F30300000DFCFFFFCB4500D2FAE000D116
:10481800F5E001225242944600224446484690461A
:10482800E2445A461F0E12021B020293130C9946C9
:1048380017433B041B0C49460093FBF7CBFC009A3B
:104848000B044243210C050019438A4207D9C919B0
:10485800013D8F4203D88A4201D9851EC919881A99
:104868004946FBF7B7FC009A240442430904240C88
:1048780003000C43A24204D9E419013BA74200D823
:10488800F7E00299A01A2D040C0C09041D43090C29
:104898002A0C2B04AB460D001B0C5D4305916343AA
:1048A8005143049462435B182C0CE318994203D9D2
:1048B800802149028C466244190C2D041B042D0CDE
:1048C8008A185D19904200D287E000D182E0434601
:1048D8005D1BA8459B41801A5B42C01AB14B5344EB
:1048E80098461C00874200D10CE14946FBF772FC50
:1048F8000200009B03905A430B04290C19438A4277
:104908000AD90300C919013B03938F4204D88A428C
:1049180002D9831E0393C919881A4946FBF75AFC22
:104928000A00120494462A0465460099120C414371
:1049380003002A43914207D9D2190138974203D874
:10494800914201D9981ED219039B521A1B040343A2
:104958000598190C05008C461904090C4D43894625
:10496800614600956546484304994D43AC464D461B
:104978004D432918009D2D0CA9464944884203D966
:10498800802040028146CC44009D080C2D04090477
:104998002D0C60444D1982420FD30BD001221343D2
:1049A800814A92456CDB1A1D9A429B415B42D208B0
:1049B8009B446CE6002D00D193E0591EBA188C4632
:1049C800BA4200D285E0824200D2C7E000D1D5E0E9
:1049D8000B00E3E7A84500D379E75B46591E029B25
:1049E8009C46E0441C0098459B415B42DB19C0187B
:1049F800874238D2824278D875D08B4667E74345DC
:104A080000D906E74A46D4075008424652081443DC
:104A18004246D207904604E7FBF70AFD15239C4659
:104A280084440200634620321C2B00DC8AE6230003
:104A38000838834099460023984692E6FBF7F8FC2D
:104A480003000200153320321C2B00DC57E60099C6
:104A58000838814000238B465EE600212E000022A4
:104A68008846524BEAE58742C7D14445C2D98B46AE
:104A78002DE7A24200D804E7831EE41901E72E00BF
:104A880001224146521A382A00DDD3E51F2A3FDCAD
:104A980047481C005044594683408140D440581E22
:104AA800834121430B435946D1400A00590709D095
:104AB8000F211940042905D0191D99429B415B42D9
:104AC800D2180B00110268D5002101230022884664
:104AD800B4E50B00824200D060E7029A954200D00C
:104AE8005CE73500C6E5454587D902235B429C460D
:104AF800029BE3449C46E04498459B415B42DB199A
:104B0800C018E4E6002B36DD012300229B44BEE5F5
:104B18001F2140464942091A5846C8400100202A28
:104B280004D05846234A5244904003435A1E9341A6
:104B380007200B43010000221940184209D00F2119
:104B4800194004291FD0181D984289410300494281
:104B58004907DB080B43984600236FE50299023B9F
:104B680049008C4602998C4589414942C919521815
:104B780061460291AEE701235B4281E70299A942AF
:104B8800ECD36346A9E70021E3E71A1D9A429B414B
:104B98005B422E00D2089B4479E551075202120B62
:104BA800D7E7C046FF03000002FCFFFFFF07000035
:104BB8001E0400003E040000F0B55746DE464E468F
:104BC8004546E0B50D000400E80F83460903D80FF9
:104BD800090B82461A488C461F0369005E00490D7E
:104BE8003F0B760D81421AD0864211D00120B14286
:104BF8000FD1BC450DD1A2420BD1D3451ED00029FF
:104C080007D1614611430A00531E9A41100000E083
:104C18000120F0BCBB46B246A946A046F0BD012023
:104C28008E42F6D1614639430F0017432743F0D12E
:104C38005B465246981A431E9841EAE70020E8E787
:104C4800FF070000F0B557464E464546DE46E0B53C
:104C58000D000E034900490D8A46DF0FE90FBC46D7
:104C680083B02F4F040080460191580019039146E4
:104C7800360B090B400DBA451DD0B8420DD057462A
:104C8800002F2AD13443002824D10A4336D0002CDF
:104C980041D163465800013815E0114338D15346D5
:104CA800002B01D12643F4D0019B634507D1019B1A
:104CB8005800013807E026432AD1504521D0012069
:104CC800019B5F42384303B0F0BCBB46B246A946DD
:104CD800A046F0BD002CDCD0E6E70028EFD0019B11
:104CE8006345ECD18245EADCE1DB8E42E7D8DED1D0
:104CF800C845E4D80020C845E5D2D8E7002CE2D062
:104D0800DDE7114304D1019B6345D8D10020DAE7E0
:104D180002204042D7E7019B6345E6D0CFE7C04673
:104D2800FF070000F0B557464E464546DE46E0B55B
:104D38000D000E034900490D8A46DF0FE90FBC46F6
:104D480083B02E4F04008046019158001903914604
:104D5800360B090B400DBA451ED0B8420DD0574648
:104D6800002F27D13443002833D10A4334D0002CF4
:104D780040D163465800013815E0114312D153461B
:104D8800002B01D12643F4D0019B63451DD001209F
:104D9800019B5F42384306E0264303D15045F6D1D4
:104DA80011431CD0022003B0F0BCBB46B246A94652
:104DB800A046F0BD0028EAD0019B6345E7D18245B3
:104DC800E5DC02DB8E42E2D80ED0019B58000138A8
:104DD800E9E7002CCDD0D7E7002CE4D0D7E7019B3A
:104DE80000206345DFD0D2E7C845D0D80020C845A9
:104DF800D9D2EAE7019B6345E4D0C8E7FF07000082
:104E0800F0B557464E464546DE46E0B51F000B0353
:104E18001B0B16009846CA0F4B000400924685B03B
:104E28005B0D00D1C2E1CC4A934200D128E1414652
:104E3800420FC9000A43802109041143C200914668
:104E4800C64A884693469B440023002501933C03A9
:104E58007A00FB0F3000240B520D009300D185E13E
:104E6800BD4B9A4200D160E1BC4B9C4662449344DE
:104E78000A2D00DD14E1730FE4001C4380231B049A
:104E88002343F0005246009900264A409246022DDC
:104E980011DD0122AA40A6211400C9000C400A42D3
:104EA80000D0FDE0902189000A4200D0D4E1882199
:104EB800114200D0EFE049464A460904140C090C97
:104EC800020C0F0015000004000C654347430195D0
:104ED800B9462F000D0006005543AC464D466643C3
:104EE8002D0CB4446544AE4205D93E0080277F02AC
:104EF800BC46664401964F463F043F0C2E0C2D04D9
:104F0800ED1902951D0C1B041B0C00951D001F00BC
:104F180065434F43AC46009D69436C433D0CA9462D
:104F2800614449448C4503D980256D02AC466444EC
:104F38003F040D0C3F0C0904C919AC4675180395BC
:104F480045462E04360C2F0C3500454378438046E1
:104F580038006444AC462D0CA94650437243424481
:104F68004A44904503D980256D02A8464044150C53
:104F7800A84665462D042D0CAC4635005D43120449
:104F88006244AC467B43009D404498462B006E43E8
:104F980065467B4346442D0CAD191F000093A84578
:104FA80004D980235B02984647440097039B019EDF
:104FB80098462B044644984663468E4289411B0412
:104FC8001B0C4344B61849421B195F18964292417C
:104FD800BC465242804691468C458941A3429B413A
:104FE800E044C14449425B42914592410B438045AC
:104FF80089412D0C494252420A435B199B18009A79
:10500800029994464A4663445B02D20D1A4390467D
:1050180072020A43511E8A41F60D16434A4652024D
:105028001643B146DB0154D44D4A5A44002A00DCE9
:1050380018E133005B0715D00F215B463140042986
:1050480010D04946081D484589418146494288444F
:105058004146C90106D54146424A11408022884648
:10506800D2009A18404B9A4200DD2BE141464B464C
:105078004C07DB081C4352054B021B0B520D1AE070
:1050880042460243914600D0E0E09B460223904608
:1050980008250193DBE6009A9846924681460196D8
:1050A800019B022B00D10DE1032B35D0012B1BD125
:1050B80000220023002412051A435346DB071A4333
:1050C8002000110005B0F0BCBB46B246A946A04678
:1050D800F0BD01227308324013434246D2071343FE
:1050E800994643465B08984680225B46D2005A445C
:1050F8000133002A00DCB6E049464907A8D00F2151
:105108004846014004299CD1A2E70F2D00D1FDE0BB
:10511800009BA0469A46B146802342461B03134390
:105128001B034C460C4A1B0BC5E70B4933008C4646
:105138002343E344002B77D1022129430A29AFDC1A
:105148005046009C60408246002D00D10EE10D00C3
:10515800002002269DE6C046FF07000001FCFFFF75
:10516800FF030000FFFFFFFEFE070000230033439C
:105178004BD0002C00D1BBE02000FBF759F903000D
:1051880002000B3B1D20C31A3000D8401100030059
:10519800300008398C408840234359468A1A784998
:1051A8008B4693440A2D00DC6CE679E743460343BB
:1051B800994623D04346002B00D187E04046FBF7B1
:1051C80037F90B235B429C46020084441100404699
:1051D800083988401D23804660461B1A2000D840A5
:1051E800030040460343984623008B409946644B8E
:1051F80000259B1A9B460023019328E60023984626
:105208009B4601330425019321E6012215430A2D0B
:1052180000DD45E7524600994A409246022D00DCDF
:1052280046E70020012634E603231D430A2D00DD4E
:105238006BE75346009A882153400122AA409A46B8
:1052480003262300114200D135E624E79B460323B9
:1052580081460C250193FAE500239A468023494AA2
:105268001B0328E75B460121891A382900DD1FE75F
:105278001F295ADD1F204042821A4046D04020296B
:1052880008D0414A9446424663449A4013004A462D
:105298001A4391464A460721531E9A410C0002437D
:1052A80000231440114209D008311140042960D06C
:1052B800111D9142A4410A0064426407D2081443B4
:1052C8000022F8E6002300242E4AF4E6FBF7B0F8A3
:1052D80015239C4684440200634620321C2B00DCC4
:1052E80074E70023994623000838834098467EE7F0
:1052F800FBF79EF803000200153320321C2B00DC5C
:1053080040E7330008388340002046E780234246C0
:105318001B031A4200D1FFE61C4200D0FCE6009AAB
:10532800234392463400174AC5E6184A4046944635
:105338004A4663449840CA4010434A469A40531E1E
:105348009A4143460243CB40510709D00F211140EF
:10535800042905D0111D9142924152429B180A001E
:10536800190208D5012200230024A4E60023002402
:10537800A1E60024A2E75C075B021B0B9EE7C04680
:105388000DFCFFFFFF0700003E0400001E040000A4
:10539800F0B54E464546DE465746E0B583B0009028
:1053A80001910D034E000199760DCC0F690A009DFD
:1053B8006D0F0D43009900920193C8001903019BDA
:1053C800CB4A5B005B0D9946019B8346DB0F9846F1
:1053D8004B0A0099490F1943009BDB009C469A46EB
:1053E800914500D173E0012347465F404B46B846DC
:1053F800F31ABC4216D0002B00DC9AE24F46002F6D
:1054080000D082E067460F4300D13AE15F1E012BCE
:1054180000D1A4E2934200D12EE1382F00DD43E20F
:105428003B003EE1002B00DCD7E24F46002F00D0C6
:10543800F8E067460F4300D123E15F1E012B00D13E
:1054480057E2934200D117E1382F00DC04E38022B1
:105458001204154200D1AAE31E0015000027A44B30
:1054680001369E4200D103E10122A24B3A401D4081
:1054780079081143EA070A436D08530709D00F2337
:105488001340042B05D017003A1DBA42BF417F4292
:10549800ED192B0200D477E3954901368E4200D1ED
:1054A800E6E0944973050D405B0D6907D2086D026B
:1054B8000A432D0B1B052B43E40723431000190057
:1054C80003B0F0BCBB46B246A946A046F0BD8A4B25
:1054D800F21863460B434CD0444550D0002A6CD098
:1054E800002E00D17DE1634644464F07DA08174392
:1054F800C8083A00024300D1CDE080252D030543BA
:105508002D033A007A4B2D0BD4E7964200D1B3E035
:10551800382B00DCC2E0471EB842804140422D1AB9
:105528002B02B1D50127754D7F422800FAF780FF7D
:105538000838202339001A1A8540D140874029436A
:10554800B04200DA45E1801B01301B1A3D009F4044
:10555800C5407A1E97410A009A402F433A43C140FA
:1055680013000D0000260B4300D086E7002200251B
:10557800A0E7474601235F40B8464445AED1002A1C
:1055880000D1EFE0002E00D088E14B462A0002430C
:1055980000D1A0E25A1E012B00D1B7E2544EB3420B
:1055A80000D17BE1382A00DC12E380252D04294252
:1055B80000D112E31E00002751E7514A731C134221
:1055C80000D0F4E062462B000A430343002E00D0CB
:1055D80074E1002B00D123E2002A00D1E0E0634609
:1055E800C71AB842924180266B1A52429B1A360457
:1055F800334200D1C1E26346181A844592414D1BDB
:105608005242AD1A0124020043462A431C40002A94
:1056180000D1DBE0354200D1E9E2364B02001D4003
:10562800012342E7964227D0382B00DD11E1802282
:10563800120411431F2B00DDA1E120220F00D21A12
:10564800914697406246DA401743B84662464F464D
:10565800BA40D940571EBA4147466D1817433F18FC
:105668008742804140422D182B0200D5F7E634E0EE
:105678003300002500221DE7C0086F070743E8082C
:1056880037E7C7086A071743194AE808934200D161
:105698002FE73A00D8E0164B00250BE780221204CA
:1056A80011431F2B00DDB7E020220F00D21A9146CC
:1056B80097406246DA401743B84662464F46BA40BA
:1056C800D940571EBA4147466D1A1743C71BB842FF
:1056D800804140422D1A2B0216D47B0700D179E273
:1056E8000F233B40042B00D0CEE63300FF08C9E768
:1056F800FF070000FFFF7FFF01F8FFFFFFFF7F00AC
:10570800FE070000444601266D026D0A002D00D0F8
:105718000BE73800FAF78CFE030018301F2800DC6E
:1057280007E73900083B9940864200DD87E0831B84
:10573800581C1F2800DC14E20A001F3BDA4020280E
:1057480005D040231B1A99404B1E99410A43002A51
:105758003CD00026530700D091E6170035003300EF
:10576800FF088FE7CA4A731C13427AD12B00034300
:10577800002E00D092E162460A43002B00D1F4E1EA
:10578800002A0DD06346C718874280416D184042F1
:105798002D182B0200D512E23A00BB462A4315D039
:1057A8005B466A07DF083A430023E8084CE0634693
:1057B800C71AB84292416B1A52429B1A1A0200D574
:1057C80087E03A001D001A43A0D1002400230025D9
:1057D80070E6B04D361A0D407B0700D080E73300E5
:1057E80084E74B462A0002437ED05A1E012B00D183
:1057F8001FE1A94CA34200D198E1382A00DC9CE1C2
:105808006246571EBC45924152428D1A44461E00BC
:105818002A0200D586E637E61A000F00203AD7405C
:10582800B846202B05D04022D31A994063460B4333
:105838009A4657467B1E9F4143461F4346E7954A73
:10584800331A11404A07C80805035B052D0B5B0D89
:1058580030E680231B041D4200D1FBE01D00002719
:10586800FDE58D4A934200D103E7624682188242E1
:105878008041691840420818C7075208174345086D
:10588800520700D4AEE10F221E003A40042A00D08D
:10589800FAE5FF086A073A430009D5E763464F0768
:1058A800DA081743C80824E6471EB8428041404238
:1058B8002D1A1E002A0200D534E6E5E5002B00D09B
:1058C8000DE1002A00D069E180250024724B2D03E8
:1058D800F0E563461F1ABC459241012443464D1B1F
:1058E8005242AD1A1C4011E7624644460D00D708E3
:1058F800C8E66346C61886428041691840420918BE
:105908000B0200D40CE1634B70081940CB0703432A
:105918004A08400700D43BE10F201840042800D172
:1059280036E11F1D9F42AD416D420223AD18FF08AD
:10593800A8E6002B00D140E64B469B1B002E00D169
:1059480050E7382B2EDD63465F1EBC45924152421C
:105958008D1A44464E462B0200D5E3E594E563468E
:10596800C71AB84280416D1A40422D1A2B0200D541
:10597800C9E66A07FF0801233A43E80864E71A0002
:105988000F00203AD740B846202B05D04022D31A22
:10599800994063460B439A4657467B1E9F414346B0
:1059A8001F435CE680223C00120415431F2B26DCB3
:1059B80020222F00D21A060090409740DE40421E57
:1059C8009041DD4037430743491B6346DF1BBC4515
:1059D800924152424E468D1A7DE6002B00D1C1E617
:1059E8004B469B1B002E00D1D0E5382B36DD802599
:1059F8002D04294200D1DDE04E4600272FE51A008C
:105A08002E00203AD640202B05D04022D31A9D40A4
:105A18002F000743BB465F467B1E9F413743D4E7B1
:105A2800002A00D1D1E6012443460D00E3461C407C
:105A3800B6E663461F1ABC4592414D1B5242AD1A49
:105A48002B0200D55EE66A07FF08444601233A4365
:105A5800E808F9E6471C17E53B00EBE5802212044D
:105A680015431F2B6CDC20222F00D21A0600904011
:105A78009740DE40421E9041DD40374307434919B5
:105A880067446745924152424E465518ECE5C04678
:105A9800FE070000FFFF7FFFFF070000002B00D17B
:105AA800FCE6C7086B071F436346E8080B4300D1B1
:105AB8001FE580231B03184207D0CA081A4204D1E5
:105AC80063461000DF0849070F437B0FFF00FF08FC
